:100000000C9434000C9451000C9451000C94510049
:100010000C9451000C9451000C9451000C94B801B4
:100020000C9451000C9451000C9451000C9451000C
:100030000C9451000C9451000C9451000C945100FC
:100040000C9451000C9451000C9451000C945100EC
:100050000C9451000C9451000C9451000C945100DC
:100060000C9451000C94510011241FBECFEFD8E026
:10007000DEBFCDBF13E0A0E0B1E0EAEEFFE002C0DA
:1000800005900D92A630B107D9F723E0A6E0B3E0C2
:1000900001C01D92AA30B207E1F70E944D050C94F1
:1000A000F3070C94000060FF11C05C9A61FF10C060
:1000B0005D9A62FF0FC05E9A63FF0EC05F9A599A05
:1000C00085E08A95F1F70000599808955C98EECF85
:1000D0005D98EFCF5E98F0CF5F98F1CF1F93CF93ED
:1000E000DF93D82FC92F162F62956F700E9453008F
:1000F000612F8D2F9C2F0E94530087EC90E0019779
:10010000F1F700C00000DF91CF911F910895429553
:10011000440F440F407C6058640F0C946E0061E003
:100120000E946E008FE39FE10197F1F700C000008D
:10013000089562E00E946E008FE39FE10197F1F75E
:1001400000C000000895CF93DF93D82FC92F509A95
:10015000519A549A559A569A579A8FE59AEE019762
:10016000F1F700C0000063E08D2F9C2F0E94530028
:100170008FE19EE40197F1F700C0000063E08D2F4E
:100180009C2F0E9453008FE891E00197F1F700C087
:10019000000063E08D2F9C2F0E94530062E08D2FA2
:1001A0009C2F0E94530068E28D2F9C2F0E946E00AE
:1001B0006CE08D2F9C2F0E946E008D2F9C2F0E9433
:1001C0008F0066E08D2F9C2F0E946E0095E89A9517
:1001D000F1F70000DF91CF910895FC0111821082A8
:1001E000138212820C94A3001F93CF93DF93D82F16
:1001F000C92F162F62956F700E945300612F8D2FAB
:100200009C2FDF91CF911F910C945300589A0E941C
:10021000F40058980895EF92FF920F931F93CF9395
:10022000DF93182F092FEB01E12CF12C899181111B
:1002300007C0DF91CF911F910F91FF90EF9008952C
:1002400080E1E816F10429F460EC812F902F0E94E0
:100250006E00FE0131976081812F902F0E94060170
:100260008FEFE81AF80AE2CF82E08093B00094E0C2
:100270009093B1008093700089EF8093B30008954C
:10028000CF93DF9300D000D0CDB7DEB78FB7F8940F
:100290002091060330910703409108035091090310
:1002A00029833A834B835C838FBF69817A818B81F9
:1002B0009C810F900F900F900F90DF91CF91089538
:1002C000E4E6F0E080818F7B8083E0E7F0E08081EE
:1002D000826080830895E0E7F0E080818D7F8083F5
:1002E000E4E6F0E080818064808308958FB7F8941D
:1002F000109206031092070310920803109209034C
:100300008FBF0895462F572FBC012FB7F8948091C7
:10031000060390910703A0910803B0910903840F8D
:10032000951FA61FB71F8093060390930703A09302
:100330000803B09309032FBF0895462F572FBC0120
:100340002FB7F8948091060390910703A0910803BA
:10035000B0910903841B950BA60BB70B8093060382
:1003600090930703A0930803B09309032FBF089548
:100370001F921FB61F9211248F939F93AF93BF9329
:100380008091060390910703A0910803B09109039F
:100390000196A11DB11D8093060390930703A093BE
:1003A0000803B0930903BF91AF919F918F911F9064
:1003B0001FBE1F901895FC0180917C008064809383
:1003C0007C0080917A00876080937A0080917A0027
:1003D000806880937A0080917C009081892B809343
:1003E0007C0080917C00807F80937C0080818330C2
:1003F00029F190F48130C1F08230E1F080917A00EF
:10040000806480937A0080917A0086FDFCCF809191
:1004100078009091790008958430A1F0853071F7CB
:1004200080917C00856003C080917C008160809316
:100430007C00E4CF80917C008260F9CF80917C00C9
:100440008360F5CF80917C008460F1CF1F93CF93C0
:10045000DF93EC018FEF9FEF998388831B821A82D1
:100460009D838C831F821E82198618861B861A869E
:10047000CE018E5B9F4F28E832E0DC01F9011D922E
:100480003197E9F726E1E4E0F1E0DC0101900D921B
:100490002A95E1F728E0FC017696DF01322F1D92C4
:1004A0003A95E9F748E853E1DC0191965C934E9365
:1004B000909732E1E2E2F1E0949601900D923A9544
:1004C000E1F7FC01F69686E1DF011D928A95E9F7D6
:1004D000769681E090E091838083AE0140575F4F34
:1004E0003DE1EAE4F1E0DA0101900D923A95E1F79D
:1004F000FA017D963BE0DF011D923A95E9F73B96C4
:1005000091838083465D5F4F37E1E2E7F1E0DA01F6
:1005100001900D923A95E1F7FA01779631E1DF010A
:100520001D923A95E9F7719662E070E071836083FD
:10053000465D5F4F36E1EAE9F1E0DA0101900D92A4
:100540003A95E1F7FA017696DF01322F1D923A953E
:10055000E9F7389691838083329648EB5BE05183CC
:100560004083AE01485F5E4F38E1E8EBF1E0DA012D
:1005700001900D923A95E1F730E1FA017896DF01AA
:10058000432F1D924A95E9F7709671836083AE01FF
:100590004E5C5E4F10E2E0EEF1E0DA0101900D9268
:1005A0001A95E1F7FA01B096DF01422F1D924A95A4
:1005B000E9F7389691838083CE018A579E4F4BE1AD
:1005C000E8E0F2E0DC0101900D924A95E1F7FC01D0
:1005D0007B9683E0DF011D928A95E9F7339671835C
:1005E000608332968CED95E091838083CE018655B1
:1005F0009E4F48E1E6E2F2E0DC0101900D924A955F
:10060000E1F7FC017896DF01432F1D924A95E9F747
:10061000709643E050E0518340838A9669E1EEE4AE
:10062000F2E0DC0101900D926A95E1F7FC01799608
:100630008FE0DF011D928A95E9F73F9684E090E014
:1006400091838083CE01885D9D4F66E1E6E7F2E00D
:10065000DC0101900D926A95E1F7FC017696DF01CD
:100660001D922A95E9F7389651834083329680EAA5
:100670009FE091838083CE01845B9D4F28E1E4E974
:10068000F2E0DC0101900D922A95E1F7FC017896E9
:10069000DF011D923A95E9F7709685E090E091832D
:1006A0008083CE018A589D4F25E1ECEBF2E0DC011E
:1006B00001900D922A95E1F7FC01759683E1DF0127
:1006C0001D928A95E9F7739686E090E09183808386
:1006D000BC96118210821382128215821482CE017E
:1006E00080539D4F2EE0E4EEF2E0DC0101900D928C
:1006F0002A95E1F7FC013E9682E1DF011D928A9581
:10070000E9F772961082CF50DD4F84E093E0998331
:100710008883DF91CF911F9108959C01FC01E253E2
:10072000FD4F80819181019691838083D901A453EB
:10073000BD4FCC9749F48D919C91119711821082F5
:10074000019611969C938E938D919C911197F9012E
:10075000E653FD4FCC9739F4808191811D921C9214
:1007600001969183808380819181489711F4118251
:1007700010820895EF92FF920F931F93CF93DF9310
:10078000EC018C0100511D4FD8011C928E819F817C
:1007900022EA289FF001299FF00D1124DF01AA59B8
:1007A000BF4FAC0FBD1FCD0182589F4FE12CF12CE4
:1007B000A817B90791F4E257FF4FEC0FFD1F80E037
:1007C00090E0BE0166537D4FAE0144535D4FE81685
:1007D000F90671F480E090E01EC098962D913C914E
:1007E0009997232B19F02FEFE21AF20A9A96E0CF8D
:1007F000208131812230310509F1DA0123303105C0
:1008000039F024303105A1F02530310569F4DB01E0
:100810002C9120FD10C099878887DF91CF911F917F
:100820000F91FF90EF9008952630310521F4DB0100
:100830002C9120FDF0CF0196BA96C9CF0E9479077E
:10084000B7010E94BD054E815F812AE2289FF00119
:10085000299FF00D112462EA649F9001659F300D7D
:100860001124E20FF31FEC0FFD1FE257FF4F21E0B1
:10087000408151814230510509F020E0F801208388
:10088000CACFCF93DF93EC012C813D818881998180
:100890002817390759F18E819F814A815B8184171E
:1008A000950721F1398328839B838A83CE010E9497
:1008B000BA03888599852AE2289FB001299F700D87
:1008C00011242E813F8142EA429FC001439F900D37
:1008D0001124680F791F6A597F4F6C0F7D1FCE015D
:1008E00080539D4FDF91CF910C9489070E94790727
:1008F0006A857B850E94BD059D838C83FC013696AD
:10090000EE0FFF1FEC0FFD1F808191819F838E836F
:10091000BBCFEF92FF920F931F93CF93DF9300D043
:1009200000D000D0CDB7DEB78D839E830D811E81B0
:100930000E591F4FED80FE8026E1E21A2DEFF20ADC
:10094000F801AD81BE811A962D913C91EE15FF05FF
:1009500009F046C0C901330FAA0BBB0B89839A83E8
:10096000AB83BC83BC01CD010E941D062FE632E1A2
:1009700043E05BE369837A838B839C8369817A811B
:100980008B819C810E94810669837A838B839C83FF
:1009900069817A818B819C810E94E505AD81BE8150
:1009A0001B967C936E931A970E151F0531F5AD813A
:1009B000BE81A05ABF4F4D815E8148515D4F20E0FE
:1009C00030E0A417B50709F459C0F9013696EE0FC7
:1009D000FF1F8D819E81E80FF91F80E090E042C0EB
:1009E00080819181820F931FAD81BE811B969C9364
:1009F0008E931A97EE55FF4FA4CFF8018081918115
:100A00009C01990F440B550B29833A834B835C83DC
:100A1000CA01B9010E941D062FE632E143E05BE303
:100A200069837A838B839C8369817A818B819C81A2
:100A30000E94810669837A838B839C8369817A8192
:100A40008B819C810E94E505D80113967C936E935F
:100A500012970E551F4FA8CF6D917C9111976193FE
:100A60007193019614966D917C911597861797074F
:100A70009CF3280F391FAE55BF4FA3CF0F900F9097
:100A80000F900F900F900F90DF91CF911F910F91CA
:100A9000FF90EF9008950C948904CDB7DEB7C75F3F
:100AA000D2400FB6F894DEBF0FBECDBFCE01019687
:100AB0007C010E942602C7010E944B058E010C504A
:100AC0001D4FC8010E94ED0040E060E0C8010E9497
:100AD0008700C7010E9441046E019FE2C91A9DEF81
:100AE000D90AB601C8010E940B010E943401789412
:100AF0000E9440014B015C017E2C6F2C5C2C4D2C24
:100B00000E9440016B017C01CF50DD4F8881C15FA5
:100B1000D240882349F1C153DD4F8881CF5CD24058
:100B200080FF25C0C8010E948F00D701C601881927
:100B30009909AA09BB0981329E44A105B10530F08B
:100B4000872D962D0E944104460157018FEF93EDAA
:100B500020E3815090402040E1F700C00000872D45
:100B6000962D0E948D03CCCFC8010E948F00652D69
:100B7000742DC8010E940B01D8CF97FB072E16F4E5
:100B8000009407D077FD09D00E94D10507FC05D05D
:100B90003EF4909581959F4F0895709561957F4F94
:100BA0000895AA1BBB1B51E107C0AA1FBB1FA617B4
:100BB000B70710F0A61BB70B881F991F5A95A9F706
:100BC00080959095BC01CD0108950E94EC05689434
:100BD000B1110C947B0608950E94600688F09F571F
:100BE00098F0B92F9927B751B0F0E1F0660F771F51
:100BF000881F991F1AF0BA95C9F714C0B13091F047
:100C00000E947A06B1E008950C947A06672F782F37
:100C10008827B85F39F0B93FCCF38695779567950B
:100C2000B395D9F73EF490958095709561957F4F77
:100C30008F4F9F4F0895E89409C097FB3EF490951D
:100C40008095709561957F4F8F4F9F4F9923A9F0A5
:100C5000F92F96E9BB279395F69587957795679534
:100C6000B795F111F8CFFAF4BB0F11F460FF1BC078
:100C70006F5F7F4F8F4F9F4F16C0882311F096E90B
:100C800011C0772321F09EE8872F762F05C06623B9
:100C900071F096E8862F70E060E02AF09A95660F72
:100CA000771F881FDAF7880F9695879597F908952B
:100CB00057FD9058440F551F59F05F3F71F047950D
:100CC000880F97FB991F61F09F3F79F087950895F2
:100CD000121613061406551FF2CF4695F1DF08C011
:100CE000161617061806991FF1CF8695710561052E
:100CF00008940895E894BB2766277727CB0197F9D6
:100D000008950E9494060C9405070E94F70638F097
:100D10000E94FE0620F0952311F00C94EE060C9430
:100D2000F40611240C947B060E94580670F3959FDC
:100D3000C1F3950F50E0551F629FF001729FBB27D2
:100D4000F00DB11D639FAA27F00DB11DAA1F649F6E
:100D50006627B00DA11D661F829F2227B00DA11D21
:100D6000621F739FB00DA11D621F839FA00D611DA7
:100D7000221F749F3327A00D611D231F849F600DC8
:100D8000211D822F762F6A2F11249F5750409AF0F1
:100D9000F1F088234AF0EE0FFF1FBB1F661F771F7D
:100DA000881F91505040A9F79E3F510580F00C9448
:100DB000EE060C947B065F3FE4F3983ED4F38695F1
:100DC00077956795B795F795E7959F5FC1F7FE2BE8
:100DD000880F911D9695879597F9089597F99F67C4
:100DE00080E870E060E008959FEF80EC08950024B3
:100DF0000A941616170618060906089500240A9480
:100E000012161306140605060895092E0394000C05
:100E100011F4882352F0BB0F40F4BF2B11F460FF94
:100E200004C06F5F7F4F8F4F9F4F0895CF92DF9227
:100E3000EF92FF92CF93DF93CDB7DEB72A970FB62D
:100E4000F894DEBF0FBECDBF89879A87A985BA8582
:100E50002D913D914D915C9129833A834B835C8325
:100E600082E49EECACE0BFE121153105410551055E
:100E700049F1CA01B9012DE133EF41E050E00E9490
:100E8000900769017A01A7EAB1E49B01AC010E94D5
:100E9000AF0769837A838B839C83ACEEB4EFA701A1
:100EA00096010E94BD079B01AC0189819A81AB81AB
:100EB000BC81820F931FA41FB51FB7FF03C001970A
:100EC000A109B048E985FA8580839183A283B38321
:100ED0009F772A960FB6F894DEBF0FBECDBFDF9185
:100EE000CF91FF90EF90DF90CF9008950E9416076A
:100EF000089580E091E00E9416070895A0E0B0E018
:100F00008093000190930101A0930201B09303012B
:100F10000895FB01DC0101900D920020E1F7089596
:100F2000052E97FB1EF400940E94A70757FD07D0DB
:100F30000E94C20707FC03D04EF40C94A7075095FB
:100F40004095309521953F4F4F4F5F4F08959095B5
:100F50008095709561957F4F8F4F9F4F08950E94A8
:100F6000E407A59F900DB49F900DA49F800D911D47
:100F700011240895B7FF0C94AF070E94AF07821B9E
:100F8000930B0895A1E21A2EAA1BBB1BFD010DC0F5
:100F9000AA1FBB1FEE1FFF1FA217B307E407F50729
:100FA00020F0A21BB30BE40BF50B661F771F881F05
:100FB000991F1A9469F760957095809590959B019B
:100FC000AC01BD01CF010895A29FB001B39FC00144
:100FD000A39F700D811D1124911DB29F700D811D65
:0A0FE0001124911D0895F894FFCF2D
:100FEA000100000048656465726C696765204861A4
:100FFA00727279732043617273000000000000006E
:10100A0000004B6F702062696C20686F7320486122
:10101A007272790000000000000000000000000069
:10102A0000000000000000000000456E20676F64A9
:10103A002062696C61666661722028666F72204858
:10104A00617272792129000000000000000000008E
:10105A00000048656465726C696765204861727250
:10106A0079732042696C6172000000000000000080
:10107A00000000000000000000004661726D6F72FF
:10108A0020416E6B61732050616A65722041420093
:10109A0000000000000000004B6F702070616A20A1
:1010AA00686F73204661726D6F7220416E6B6100CA
:1010BA000000000000000000000000000000000026
:1010CA00536B796E646120696E6E616E204D617238
:1010DA0074656E206174697420616C6C61207000A3
:1010EA000000000000000000537661727465205011
:1010FA006574746572732053766172746279676776
:10110A00656E000000004C6174205065747465724D
:10111A002042796767612061742064696700000072
:10112A0000000000000000000000000000004279FA
:10113A006767612073766172743F2052696E672017
:10114A005065747465720000000000000000000021
:10115A000000000000004C616E6762656E732064D7
:10116A006574656B746976627972610000000000CB
:10117A00000000004D79737465726965723F2052F0
:10118A00696E67204C616E6762656E000000000040
:10119A000000000000000000000000004C616E67C3
:1011AA0062656E2066697861722062696666656E3C
:1011BA000000000000000000000000000000000025
:1011CA0000000000686F70706C61736173616E6A11
:1011DA006F00000000000000000000000000000096
:0611EA00000000000000FF
:00000001FF
